:020000040800F2
:100000002808002001010008490400083104000804
:100010004504000885020008631000080000000085
:100020000000000000000000000000006908000857
:10003000890200080000000095060008C9090008B0
:100040001B0100081B0100081B0100081B01000820
:100050001B0100081B0100081B0100081B01000810
:100060001B0100081B0100081B0100081B01000800
:100070001B0100081B0100081B0100081B010008F0
:100080001B0100081B0100081B0100081B010008E0
:100090001B0100081B0100081B0100081B010008D0
:1000A0001B0100081B0100081B0100081B010008C0
:1000B0001B0100081B0100081B0100081B010008B0
:1000C0001B0100081B0100081B0100081B010008A0
:1000D0001B0100085D0F00081B0100088D0F0008C0
:1000E0001B0100081B0100081B010008DFF80CD0F1
:1000F00000F0B0F80048004715110008280800205B
:100100000648804706480047FEE7FEE7FEE7FEE7B1
:10011000FEE7FEE7FEE7FEE7FEE7FEE7CD090008A3
:10012000ED000008F0B480EA0102D40F4200B2EB07
:10013000410F02D20246084611464A0042D0C30D82
:10014000DDB2C1F3C752AD1A202D35DAC1F3160165
:1001500041F4000204B15242C5F1200602FA06F150
:100160002A411044B3EBD05F23D0C4B1012DA0EBE2
:10017000C35009DCF0BC4FF0004202EAC352DBB2CC
:1001800000F5000000F038B8400000F1807000EB8E
:10019000C350A0F1807040EAD170490009E04908DD
:1001A00041EAC071A0EBC35000F50000400800EB2D
:1001B000C350F0BC00F017B86142012202EB4101CC
:1001C000001BF6E7F0BC704781F00041AAE780F021
:1001D0000040A7E7C10F80EAE0700844CA079623F1
:1001E000002100F009B80029A8BF7047401C490051
:1001F00008BF20F00100704710B4B0FA80FC00FA8C
:100200000CF050EA010404BF10BC704749B1CCF1B6
:10021000200421FA04F411FA0CF118BF0121214342
:100220000843A3EB0C01CB1D4FEA00614FEA1020FD
:1002300042BF002010BC704700EBC350104400299F
:10024000A4BF10BC7047401C490008BF20F001004B
:1002500010BC7047064C074D06E0E06840F0010313
:1002600094E8070098471034AC42F6D3FFF742FFFA
:100270001C1100083C11000801490860704700008B
:1002800000860D4200BFFEE770472DE9F0410246AF
:1002900000250026002000230024002791F803C039
:1002A0000CF00F0591F803C00CF0100CBCF1000F1E
:1002B00003D091F802C04CEA050591F800C0BCF1EA
:1002C000000F31D0146800202BE04FF0010C0CFA25
:1002D00000F3B1F800C00CEA03069E4220D183006F
:1002E0004FF00F0C0CFA03F7BC4305FA03FC4CEA81
:1002F000040491F803C0BCF1280F06D14FF0010CA3
:100300000CFA00FCC2F814C00AE091F803C0BCF17A
:10031000480F05D14FF0010C0CFA00FCC2F810C0D8
:10032000401C0828D1D31460B1F800C0BCF1FF0F05
:1003300034DD546800202EE000F1080C4FF0010875
:1003400008FA0CF3B1F800C00CEA03069E4221D172
:1003500083004FF00F0C0CFA03F7BC4305FA03FCC3
:100360004CEA040491F803C0BCF1280F05D100F158
:10037000080C08FA0CF8C2F8148091F803C0BCF11C
:10038000480F07D100F1080C4FF0010808FA0CF8EB
:10039000C2F81080401C0828CED35460BDE8F0811C
:1003A000F0B50A46002300240021002500F0004695
:1003B000B6F1004F02D11D4EF16901E01B4E71688C
:1003C000C0F3034583B200F44016B6F5401F08D1D0
:1003D00021F07061154E766826F07066134F7E60CE
:1003E00012E000F48016B6F5801F06D1032606FA47
:1003F00005F4A14341F0706106E0460D360103FAB1
:1004000006F6B14341F0706122B1460D360103FAA0
:1004100006F6314300F00046B6F1004F02D1034E1C
:10042000F16101E0014E7160F0BD0000000001408B
:1004300000BFFEE710B500F025FE00F037FA00F02F
:100440001DF810BD00BFFEE77047000030B5002466
:100450000CE0002506E00020074901EBC501085526
:10046000681CC5B2802DF6DB601CC4B2082CF0DB22
:1004700000F0B8F830BD00002800002008B50121C8
:10048000082000F019F90121084600F015F90121B2
:100490004F48FFF785FF3820ADF8000010208DF899
:1004A000030002208DF8020069464A48FFF7EDFE7E
:1004B0000121042000F000F94FF40040ADF80000E5
:1004C00002208DF8020010208DF803006946424892
:1004D000FFF7DBFE012000F0D7F8002000F0FCF869
:1004E0000020FFF7C9FE002000F0CEF800203B49B5
:1004F0000860642000F0E8FD01203949C1F88C0152
:100500000021AE2000F094F80021D52000F090F8F2
:100510000021502000F08CF80021A82000F088F87D
:1005200000213F2000F084F80021D32000F080F863
:100530000021084600F07CF80021402000F078F807
:1005400000218D2000F074F80021142000F070F8D4
:100550000021202000F06CF80021022000F068F853
:100560000021A12000F064F80021C02000F060F814
:100570000021DA2000F05CF80021122000F058F889
:100580000021812000F054F80021EF2000F050F805
:100590000021D92000F04CF80021F12000F048F8AB
:1005A0000021DB2000F044F80021302000F040F86A
:1005B0000021A42000F03CF80021A62000F038F82B
:1005C0000021AF2000F034F8FFF740FF08BD000025
:1005D00000023000000C0140000801408C812142E3
:1005E0000080214230B500241CE004F1B001C8B203
:1005F000002100F01DF80021084600F019F8002144
:10060000102000F015F8002508E0084901EBC501AD
:10061000085D012100F00CF8681CC5B2802DF4DBE8
:10062000601CC4B2082CE0DB30BD000028000020B4
:1006300010B50A461AB10123114C236002E00023D1
:100640000F4C2360002114E000230E4C236000F0C7
:1006500080031BB10123241F236003E00023094C06
:10066000241F23600123074C23604306180E4B1CF4
:10067000D9B20829E8DB0123014C236010BD00003A
:10068000BC01214294812142014908627047000067
:1006900000000E427047000029B1064AD2690243A9
:1006A000044BDA6104E0034AD2698243014BDA6108
:1006B000704700000010024029B1064A92690243C7
:1006C000044B9A6104E0034A92698243014B9A61A8
:1006D000704700000010024000210B4A11700A4AC6
:1006E000203A82F82010012802D0042808D103E023
:1006F0000121054A117004E00521034A117000E050
:1007000000BF00BF70470000201002402DE9F041FB
:10071000044651480078072841D2DFE800F0040C75
:10072000141C242C3400AA2C04D14B480078401C03
:100730004949087037E04948047047480078401C30
:10074000454908702FE04548447043480078401CF4
:100750004149087027E0414884703F480078401CB8
:100760003D4908701FE03D48C4703B480078401C7C
:100770003949087017E03948047137480078401C3F
:10078000354908700FE0552C05D133480078401CDE
:100790003149087002E000202F49087003E0002072
:1007A0002D49087000BF00BF2B480078072850D1A2
:1007B0002A490978294AD2781144284A52781144A2
:1007C000264A9278881825490979C21700EB1262E7
:1007D0001212A0EB022291423BD1204840781F49DF
:1007E000097840EA012006B21C48C0781B49897884
:1007F00040EA012007B2C6F30E00FFF7EBFC80468B
:1008000006F4004008B188F00048C7F30E00FFF777
:10081000E1FC054607F4004008B185F0004541467B
:100820000F480068FFF77EFC0D49086029460D4817
:100830000068FFF777FC0B490860002003E0002107
:10084000064A1154401C0528F9DB002002490870B3
:1008500000BFBDE8F0810000200000202100002042
:10086000180000201C0000207047000010B504464E
:100870002146054800F0F1FB00BF8021024800F04E
:10088000B0FB0028F9D010BD0048004010B5044668
:100890002146054800F0E1FB00BF8021024800F03E
:1008A000A0FB0028F9D010BD0038014010B500F0C1
:1008B000BDF800F037F910BD10B500F001F810BD1B
:1008C0000CB50020019000903348006840F480305F
:1008D0003149086000BF3048006800F400300090E3
:1008E0000198401C0190009818B90198B0F5A06FCC
:1008F000F1D12948006800F4003010B101200090C7
:1009000001E0002000900098012843D123480068AE
:1009100040F01000214908600846006820F00300FC
:1009200008600846006840F0020008601A48406805
:10093000194948600846406848600846406840F4E5
:10094000806048600846406820F47C104860084693
:10095000406840F4E81048600846006840F0807045
:10096000086000BF0C48006800F000700028F9D053
:100970000948406820F0030007494860084640687D
:1009800040F00200486000BF0348406800F00C00DF
:100990000828F9D10CBD00000010024000200240E0
:1009A000042808D14FF0E021096941F004014FF01B
:1009B000E022116107E04FF0E021096921F0040114
:1009C0004FF0E022116170477047000010B51348E6
:1009D000006840F00100114908600846406810496D
:1009E00008400E494860084600680E4908400B4917
:1009F00008600846006820F48020086008464068C7
:100A000020F4FE0048604FF41F008860FFF754FF99
:100A10004FF000600449086010BD00000010024063
:100A20000000FFF8FFFFF6FE08ED00E000B589B01A
:100A300001210220FFF730FE01210420FFF73CFED8
:100A400001210820FFF738FEC020ADF82000182053
:100A50008DF8230003208DF8220008A92E48FFF707
:100A600014FC0320ADF8200008A92C48FFF70DFC6A
:100A700044F61F60ADF818004720ADF814000020C0
:100A8000ADF81A00ADF8160005A9254800F014FAD3
:100A90006020ADF804000120ADF806000020ADF89C
:100AA0000C0040F2DC50ADF80A0001A91C4800F02F
:100AB000A7F808211A4800F0EFF84FF47A70ADF863
:100AC0000A0001A9164800F0F1F80821144800F0C6
:100AD0003FF94FF4E160ADF80A0001A9104800F0B9
:100AE00045F908210E4800F091F94FF4FA60ADF88D
:100AF0000A0001A90A4800F093F90821084800F00B
:100B0000CDF90121064800F063F80121044800F006
:100B10006BF809B000BD000000080140000C014066
:100B20000004004000B589B001210420FFF7B4FDA6
:100B300001210820FFF7C0FDC020ADF820001820DB
:100B40008DF8230003208DF8220008A91E48FFF726
:100B50009CFB44F61F60ADF818004720ADF8140068
:100B60000020ADF81A00ADF8160005A9174800F0EE
:100B7000A3F96020ADF804000120ADF806000020C4
:100B8000ADF80C004FF44870ADF80A0001A90F4809
:100B900000F036F808210D4800F07EF840F2DC50F5
:100BA000ADF80A0001A9094800F080F808210748BB
:100BB00000F0CEF80121054800F00AF801210348B1
:100BC00000F012F809B000BD000C01400008004020
:100BD00021B1028842F08002028004E002884FF6D0
:100BE0007F731A400280704721B1028842F00102EF
:100BF000028004E002884FF6FE731A4002807047BC
:100C000070B5002400220023058C4FF6FE76354097
:100C10000584028C8388048B4FF68F752C40B51E9B
:100C20002C400D882C43751E2A400D892A434D887F
:100C30002A43144DA8420BD0134DA84208D0134D9F
:100C4000A84205D0124DA84202D0124DA84213D19D
:100C50004FF6F7752A404D892A434FF6FB752A4017
:100C60008D882A434FF6FF652B404FF6FF552B40EA
:100C70008D892B43CD892B4383800483CD88858642
:100C8000028470BD002C014000340140004001404E
:100C900000440140004801400A460021018B4FF604
:100CA000F7731940114301837047000070B50024A9
:100CB00000220023058C4FF6EF7635400584028C28
:100CC0008388048B48F6FF752C404FF6FF452C4077
:100CD0000D884FF6FF7606EA05252C434FF6DF75A3
:100CE0002A400D8906EA05152A434D8806EA0515AE
:100CF0002A43154DA84202D0144DA8421DD14FF6EB
:100D00007F752A404D894FF6FF7606EA05152A437E
:100D10004FF6BF752A408D8806EA05152A434FF61F
:100D2000FF352B404FF2FF752B408D8906EA850574
:100D30002B43CD8906EA85052B4383800483CD8828
:100D40000587028470BD0000002C01400034014082
:100D50000A460021018B4FF2FF7319404FF6FF73D3
:100D600003EA0223194301837047000070B5002491
:100D700000220023058C4FF6FF6635400584028C67
:100D80008388848B4FF68F752C404FF6FC752C4072
:100D90000D882C434FF6FF552A400D894FF6FF76FC
:100DA00006EA05252A434D8806EA05252A43154DFE
:100DB000A84202D0144DA8421DD14FF2FF752A401F
:100DC0004D894FF6FF7606EA05252A434FF6FF3593
:100DD0002A408D8806EA05252A434EF6FF752B40EA
:100DE0004DF6FF752B408D8906EA05152B43CD89FD
:100DF00006EA05152B4383808483CD88858702848A
:100E000070BD0000002C0140003401400A46002162
:100E1000818B4FF6F77319401143818370470000AF
:100E200070B5002200230024058C4EF6FF76354075
:100E30000584038C8488828B48F6FF752A404FF620
:100E4000FF452A400D884FF6FF7606EA05252A431E
:100E50004DF6FF752B400D8906EA05352B434D886D
:100E600006EA05352B430B4DA84202D00A4DA84295
:100E700008D14BF6FF752C408D894FF6FF7606EAB8
:100E800085152C4384808283CD88A0F8405003844C
:100E900070BD0000002C0140003401400A460021D2
:100EA000818B4FF2FF7319404FF6FF7303EA022361
:100EB0001943818370470000002202881D4B98422D
:100EC0000ED01D4B98420BD0B0F1804F08D01B4B79
:100ED000984205D01A4B984202D01A4B984204D13E
:100EE0004FF68F731A404B881A43174B984207D01E
:100EF000164B984204D04FF6FF431A40CB881A4352
:100F000002808B8883850B8803850A4B98420BD01F
:100F1000094B984208D00E4B984205D00D4B984291
:100F200002D00D4B984201D10B7A038601238382B4
:100F300070470000002C01400034014000040040D4
:100F400000080040000C0040001000400014004069
:100F500000400140004401400048014010B540F20B
:100F60002551094800F04AF801280CD1064800F044
:100F70006FF8C4B22046FFF789FC40F225510248C1
:100F800000F020F800BF10BD0038014010B540F25D
:100F900025510B4800F032F801280FD1084800F025
:100FA00057F8C4B22046FFF7B1FB2046FFF75EFCBE
:100FB00040F22551024800F005F800BF10BD0000C6
:100FC0000048004010B50022002340F66A14A142F8
:100FD00000D100BF0A1201249440A3B2DC43048074
:100FE00010BD02460020B1F5007F00D100BF13887C
:100FF0000B400BB1012000E00020704770B50246A5
:10100000002400230025002040F66A16B14200D1DA
:1010100000BFC1F3421501F01F03012606FA03F3D6
:10102000012D02D19689334006E0022D02D1168AA5
:10103000334001E0968A33400C12012606FA04F48C
:101040001688344013B10CB1012000E0002070BDBF
:1010500001468888C0F308007047C1F30802828007
:10106000704700BFFEE702E008C8121F08C1002A4F
:10107000FAD170477047002001E001C1121F002A19
:10108000FBD1704710B56FF00400FFF789FC0A48E8
:1010900000680A49B0FBF1F0094908700846007879
:1010A00000EB4001C1EBC0104FF6FF7101EAC00038
:1010B0000449088010BD00000000002000127A00E2
:1010C00014000020160000200146114A12884A43ED
:1010D0004FF0E0235A6100229A611A46126942F0E9
:1010E00001021A6100BF4FF0E022106900F0010216
:1010F0001AB100F48032002AF5D04FF0E0221269D4
:1011000022F001024FF0E0231A6100229A61704739
:1011100016000020FFF78EF900BFFEE73C11000823
:10112000000000202800000066100008641100087C
:1011300028000020000800007610000800A24A04E1
:101140000000000000000000010203040607080977
:101150000000000000803B4500803B45000000008F
:04116000000000008B
:04000005080000ED02
:00000001FF
